:100000001FC039C038C037C036C035C034C033C057
:1000100032C031C030C02FC02EC02DC02CC02BC06C
:100020002AC029C028C05CC54E4F3200434F00286B
:10003000002C0070706200707062003300370000A6
:1000400011241FBECFEFD2E0DEBFCDBF11E0A0E094
:10005000B1E0EAE5FFE002C005900D92AA34B107D5
:10006000D9F711E0AAE4B1E001C01D92AF3AB1079F
:10007000E1F7C5D270C7C4CF90917C008F70907F9C
:10008000892B806480937C0080917A00887F8668C9
:1000900080937A0080917A00806480937A008091C6
:1000A0007A0086FDFCCF2091780030917900932F63
:1000B00080E030E0282B392BC90108955A98089523
:1000C0005A9A0895529A5A9A0895DF93CF930F92AD
:1000D000CDB7DEB78983F2DF89819ED4F1DF0F903F
:1000E000CF91DF9108950F931F93DF93CF930F92DA
:1000F000CDB7DEB7803111F008E001C008E110E0B3
:1001000005C0802F6983E1DF1F5F69811617C8F37F
:100110000F90CF91DF911F910F9108950F931F932F
:10012000DF93CF930F92CDB7DEB7803111F004E0AB
:1001300001C004E110E005C0802F6983C6DF1F5FA6
:1001400069811617C8F30F90CF91DF911F910F911E
:10015000089580914A0190914B01089590934B012D
:1001600080934A010895823030F4E82FF0E0E050A7
:10017000FF4F8081089580E0089590E0880F991FD7
:10018000815D9F4FFC0125913491CB01B901AEC631
:1001900090E0880F991F855C9F4FFC012591349159
:1001A000CB01B901A3C6DF93CF9300D000D0CDB768
:1001B000DEB719821A821B821C82682F70E0660FDC
:1001C000771F660F771F60507040CE01019644E0A4
:1001D00050E09CD669817A818B819C810F900F9031
:1001E0000F900F90CF91DF910895DF93CF9300D0C0
:1001F00000D0CDB7DEB749835A836B837C83682FE9
:1002000070E0660F771F660F771F60507040CE0159
:10021000019644E050E089D60F900F900F900F9018
:10022000CF91DF910895DF93CF93CDB7DEB7E097FD
:100230000FB6F894DEBF0FBECDBFFE013D96A6E21D
:10024000B1E094E20D9001929150E1F7FE013196F8
:10025000AAE1B1E09CE00D9001929150E1F79E017E
:100260002F5F3F4F50E0E62FF0E0882341F4EE0F80
:10027000FF1FE20FF31FE40FF51F848507C0EE0F89
:10028000FF1FE40FF51FE20FF31F8081E0960FB60A
:10029000F894DEBF0FBECDBFCF91DF910895282F18
:1002A00030E0220F331F220F331F2E5F3E4FC90154
:1002B0000895282F30E0220F331F220F331F265FAF
:1002C0003E4FC9010895282F30E0220F331F220F1F
:1002D000331F2E5E3E4FC90108959BB19F7788233F
:1002E00011F080E801C080E0982B9BB9089580E070
:1002F000F4DF579A8AE18A95F1F781E0EEDF80E139
:1003000097E20197F1F70895FF920F931F93082F3B
:1003100081E0011180E0E1DF12E4812F8A95F1F79D
:10032000F9B0812F8A95F1F7802FD7DF812F8A9539
:10033000F1F789B11A95F1F787FF0CC08F2D992736
:1003400087FD909580959095392F331F3327331F64
:10035000832F02C080E090E01F910F91FF900895DD
:10036000579881E0D1DF579A08950F931F93DF9339
:10037000CF930F92CDB7DEB7182F08E0812F80788A
:100380006983C2DF110F015069810023B9F7862FFD
:10039000BBDFE6DF0F90CF91DF911F910F910895A2
:1003A000CF92DF92EF92FF920F931F93DF93CF9341
:1003B0000F92CDB7DEB77B01082F192FCC24DD2497
:1003C00017C0F80181918F010894C11CD11CCE1473
:1003D000DF0439F461E070E0442329F060E070E06C
:1003E00002C061E070E04983C0DF4981882329F0C1
:1003F000CE14DF0430F381E001C080E00F90CF9194
:10040000DF911F910F91FF90EF90DF90CF900895B3
:10041000AF92BF92CF92DF92EF92FF920F931F9312
:10042000DF93CF930F92CDB7DEB77B01082F192F43
:10043000AA24BB241EC00894A11CB11C91E0AE14D8
:10044000BF0409F490E0579888E0C82EDD2481E0CD
:1004500099835ADFDD0CD82ACA949981CC20B9F748
:10046000579AF801D1928F01892F4EDF79DF8823C7
:1004700029F0AE14BF04F8F281E001C080E00F90D3
:10048000CF91DF911F910F91FF90EF90DF90CF9070
:10049000BF90AF90089580E020DF88E28A95F1F761
:1004A00085E561E062CF80934C010895EF92FF9261
:1004B0000F931F93DF93CF9300D000D0CDB7DEB75B
:1004C0007C018A0180914C01898383E08A837B834C
:1004D0006C830DDFF894DFDFCE01019664E070E0FD
:1004E00040E05EDF882329F0C701B80191DF88234F
:1004F00011F4789402C0789481E00F900F900F90DF
:100500000F90CF91DF911F910F91FF90EF90089581
:100510000F931F93FC014081318120E0828190E0A4
:10052000822B932B25B134E0232725B9413119F0D3
:10053000433399F502C012DE30C08032910568F174
:100540008097803251F5438150E060E070E0762F73
:10055000652F542F4427048110E020E030E0402B29
:10056000512B622B732B762F652F542F4427058137
:1005700010E020E030E0402B512B622B732B762FC4
:10058000652F542F4427068110E020E030E0402BF7
:10059000512B622B732B892F28DE1F910F91089509
:1005A000229A2A98219A29982A9A81E00CD480EAE2
:1005B0007ADF89EA91E06AEF70E046E050E076DFAA
:1005C00083E04ED28DE393E06ED288E892E066D26B
:1005D00036D2509A5898539A5B98589A5B9A80E012
:1005E00043D480E049D481E03FD481E045D42A98C7
:1005F00019D268DD81E060E0C4D329980895D0DF86
:1006000080E16FEF8BDD80E06FEF88DDCEEAD0E038
:1006100080E061E068DD2197D9F7C8ECD0E080E1A7
:1006200061E061DD2197D9F77894FFCFCF92DF9217
:10063000EF92FF920F931F93C82E44E6D42EEE2420
:10064000FF2487018C2D8FDD17DD9C0140E050E0F9
:10065000E20EF31E041F151FDA94A1F7C801B701BB
:1006600024E630E040E050E01FD4C9011F910F9113
:10067000FF90EF90DF90CF9008952F923F924F928E
:100680005F926F927F928F929F92AF92BF92CF9222
:10069000DF92FF920F931F93DF93CF93CDB7DEB717
:1006A00068970FB6F894DEBF0FBECDBF52DD1E8235
:1006B0001D8218861F821A8619861B861C861D8637
:1006C0001E861F86188A198A1A8A1B8A1C8A1D8A06
:1006D0001E8A19821A821B821C828130910561F068
:1006E0008130910520F087309105A1F40EC082E0A1
:1006F00080934D0161E075C18DE491E069EA71E09C
:1007000046E050E0FAD366E06CC161E270E080E060
:1007100090E02DC08032910508F462C18097F92ED7
:10072000082F8432D9F1853238F48031C1F080321B
:10073000E1F0882379F03EC18C3281F18D3220F4D2
:10074000883209F037C117C08033C1F0843309F013
:1007500031C117C0892F6DE471E00FDD04C0892F0E
:100760006DE471E015DD60E13CC1892F1CDD4DE4D5
:1007700051E039D335C1892F92DD05C0892F99DD2C
:1007800002C0892FA0DDBC01CE01019644E050E0FB
:10079000B4D369817A818B819C81E9CF8F2D2CD351
:1007A0003B014C018F2D36D35B016C018F2D40D363
:1007B000A60CB71CC81CD91CA60EB71EC81ED91E75
:1007C000AB86BC86CD86DE868F2D16D35B016C0191
:1007D0008F2D20D36A0D7B1D8C1D9D1D6F87788BFF
:1007E000898B9A8B8F2D08D36B8B7C8B8D8B9E8BFB
:1007F0008F2D3AD38F2D40D3F0E2AF2EFEE4BF2EE3
:10080000C5010197F1F78F2D11DF1C019E838D83A8
:100810008F2D42D3C5010197F1F78F2D07DF3C01E2
:1008200098878F838F2D30D3C5010197F1F78F2DD6
:10083000FDDE988F8F8B9A8789878F2D07D3EAE00B
:10084000660F771F881F991FEA95D1F720E137E2DD
:1008500040E050E029D344245524221633064406B0
:10086000550638F4DA01C90182199309A409B509BA
:1008700006C0D201C101821B930BA40BB50B898367
:100880009A83AB83BC8388249924621673068406FA
:10089000950638F459016A01A618B708C808D9089E
:1008A00006C064015301A21AB30AC40AD50A8A1504
:1008B0009B05AC05BD0510F45C016D01A816B906D9
:1008C000CA06DB06B1F0621673068406950638F494
:1008D00039014A01621873088408950804C0621A35
:1008E000730A840A950A69827A828B829C8261E00B
:1008F00001C060E089819A81AB81BC816F88788C6E
:100900005301CC24DD24A216B306C406D50628F470
:100910002A193B094C095D0908C035014601621AD4
:10092000730A840A950AA401930182179307A40706
:10093000B50710F49C01AD01281739074A075B077A
:1009400009F062E00C3209F04BC0062F10E0F8010C
:10095000EE0FFF1F5E010894A11CB11CEA0DFB1DE8
:100960006481758180E090E04DE451E03CD2F80173
:10097000EE0FFF1FEE0FFF1FEA0DFB1D6285738553
:100980008485958541E551E02ED28F2D5FD245E5D6
:1009900051E029D268E873E180E090E049E551E058
:1009A00022D260E074E080E090E04DE551E01BD29F
:1009B00064E117C010E00853104053E01695079506
:1009C0005A95E1F78F2D602F40E02DDC80934D018B
:1009D0008F2D602F41E027DC80934E0162E001C043
:1009E00064E08DE491E040D068960FB6F894DEBFE5
:1009F0000FBECDBFCF91DF911F910F91FF90DF9080
:100A0000CF90BF90AF909F908F907F906F905F90AE
:100A10004F903F902F9008958EBD0DB407FEFDCFEF
:100A20008EB5089584B18C6284B985B1837D85B912
:100A30008CB583618CBD8CB580648CBD089510929B
:100A40007901E9EBF0E080818E7F808380818D7F6A
:100A5000808380E28093B80085E48093BC00089591
:100A6000880F8093BA0008956531A0F42091790130
:100A7000243091F460939201DC01E5E9F1E070E04B
:100A80006E0F7F1F02C08D918193E617F707D9F78C
:100A900080E0089581E0089582E0089590939001A8
:100AA00080938F010895909394018093930108950A
:100AB000882311F085EC01C085E88093BC0008957F
:100AC00085ED8093BC008091BC0084FDFCCF10922A
:100AD0007901089585EC8093BC0010927901089506
:100AE0001F920F920FB60F9211242F933F934F93A3
:100AF0005F936F937F938F939F93AF93BF93EF9386
:100B0000FF938091B90090E0887F907080369105C6
:100B100009F4C2C081369105E4F58832910509F4E3
:100B20007EC089329105C4F48031910509F472C008
:100B30008131910544F4009709F40FC18830910583
:100B400009F00EC167C08831910509F468C0803290
:100B5000910509F005C178C08034910509F48AC077
:100B6000813491054CF48033910509F46FC08833CA
:100B7000910509F0F5C06EC08035910509F46EC08D
:100B80008835910509F47BC08834910509F0E8C0E7
:100B9000E6C08839910509F4D8C089399105ECF48B
:100BA0008837910509F478C0893791054CF4883667
:100BB000910509F471C08037910509F0D1C06CC06E
:100BC0008838910509F4C1C08039910509F46AC0DB
:100BD0008038910509F0C4C065C0803B910509F4D7
:100BE0008CC0813B91054CF4803A910509F46CC0AE
:100BF000883A910509F0B4C080C0803C910509F4A1
:100C0000A7C0883C910509F4A3C0883B910509F071
:100C1000A7C088C0809161018093BB0013C09091F0
:100C2000620180916301981708F099C08091620178
:100C3000E82FF0E0EC59FE4F90819093BB008F5F5E
:100C40008093620181E082C080E201C080E38093F2
:100C5000780185C088E3809378014DC0809162015E
:100C60009091BB00E82FF0E0EC59FE4F90838F5F2E
:100C700080936201909162018091630163C08091D1
:100C800062019091BB00E82FF0E0EC59FE4F908399
:100C90008F5F8093620163C083E08093790110923B
:100CA0007A01D0CF80917A01843108F04EC08091D2
:100CB0007A019091BB00E82FF0E0E558FE4F908359
:100CC0008F5F80937A01BECF80917A01843130F4B6
:100CD000E0917A01F0E0E558FE4F1082F1DE60917C
:100CE0007A01E0918F01F09190018BE791E070E043
:100CF000099510927A01EEDE33C084E08093790189
:100D00001092910110929201E0919301F09194015F
:100D1000099580919201882329F481E080939201C2
:100D20001092950180919101E82FF0E0EB56FE4F73
:100D300090819093BB008F5F80939101909191017E
:100D400080919201981708F47DCF80E0B1DE08C051
:100D500081E0AEDE1092790103C010927801B0DE1E
:100D6000FF91EF91BF91AF919F918F917F916F9183
:100D70005F914F913F912F910F900FBE0F901F9059
:100D8000189590E048EC50E01BC0662311F4299AB6
:100D900001C02A9A24EF31E0FA013197F1F721508E
:100DA0003040D1F7662311F4299801C02A9820ED2C
:100DB00037E0FA013197F1F721503040D1F79F5FCA
:100DC000981718F3089590E048EC50E009C020E12E
:100DD00037E2FA013197F1F721503040D1F79F5FA8
:100DE0009817A8F30895FA019193DA0111968C935C
:100DF0001197718362830895882329F428E938E0E4
:100E000040E050E004C020EA39E041E050E0B901A0
:100E1000CA010895882329F428E83EE540E050E01F
:100E200004C020EA39E041E050E0B901CA01089568
:100E3000882329F428EE39EB43E050E004C020E495
:100E400030E64AE050E0B901CA010895882329F448
:100E500024EC39E040E050E004C028E833E140E011
:100E600050E0B901CA010895882319F43F984798C2
:100E7000089554985C980895882319F451985998C6
:100E8000089527982F980895882319F43F9A479832
:100E90000895549A5C980895882319F4519A5998A2
:100EA0000895279A2F980895A1E21A2EAA1BBB1B1A
:100EB000FD010DC0AA1FBB1FEE1FFF1FA217B30726
:100EC000E407F50720F0A21BB30BE40BF50B661F3C
:100ED000771F881F991F1A9469F760957095809500
:100EE00090959B01AC01BD01CF010895FB01DC0190
:100EF00005900D920020E1F70895FB01DC0102C08E
:100F000001900D9241505040D8F70895DC01862F92
:100F1000E82FF999FECF1FBA05C0E1BDF89AE39515
:100F200000B40D924150C8F70895DC01862F02C02D
:100F30002D9104D04150E0F70895262FF999FECF66
:100F40001FBA1FBA81BD20BD0FB6F894FA9AF99A5C
:0A0F50000FBE01960895F894FFCF3C
:100F5A0000029A992940A69B443BCDCCCC3F000085
:100F6A0025436F12833A6F12833A86FAA87DCA31F3
:100F7A00E80CF106FFFF00000107020F0316041E2A
:100F8A000523072A09311045164F1C5A2669347859
:0A0F9A00498E6AA9AAD1FBF9FFFFF6
:00000001FF
