:100000001FC039C038C037C036C035C034C033C057
:1000100032C031C030C02FC02EC02DC02CC02BC06C
:100020002AC029C028C071C34E4F3200434F002858
:10003000002C0070706D0070706D0028002C0000A6
:1000400011241FBECFEFD1E0DEBFCDBF11E0A0E095
:10005000B1E0EEEFFAE002C005900D92AE31B107CB
:10006000D9F711E0AEE1B1E001C01D92AC35B107A6
:10007000E1F7A5D242C5C4CF20917C00982F9F7094
:10008000207F922B906490937C0090917A008770EF
:10009000987F892B806880937A0080917A008064B1
:1000A00080937A0080917A0086FDFCCF20917800C1
:1000B00030917900932F80E030E0282B392BC90153
:1000C00008955A9808955A9A0895529A5A9A0895F6
:1000D000DF93CF930F92CDB7DEB78983F2DF8981AB
:1000E000B0D2F1DF0F90CF91DF9108950F931F935E
:1000F000DF93CF930F92CDB7DEB7803111F008E0D8
:1001000001C008E110E005C0802F6983E1DF1F5FB7
:1001100069811617C8F30F90CF91DF911F910F914E
:1001200008950F931F93DF93CF930F92CDB7DEB750
:10013000803111F004E001C004E110E005C0802F1F
:100140006983C6DF1F5F69811617C8F30F90CF91CF
:10015000DF911F910F91089580911E0190911F01D1
:10016000089590931F0180931E010895823030F40A
:10017000E82FF0E0EA5FFE4F8081089580E0089567
:1001800090E0880F991F815D9F4FFC01259134916C
:10019000CB01B90193C490E0880F991F855C9F4FF4
:1001A000FC0125913491CB01B90188C4DF93CF9331
:1001B00000D000D0CDB7DEB719821A821B821C8214
:1001C000682F70E0660F771F60507040CE01019677
:1001D00044E050E083D469817A818B819C810F90C7
:1001E0000F900F900F90CF91DF91089590E06BE00A
:1001F00070E017D4FC01E85FFE4F80853DCF90E0B2
:100200006BE070E00ED4FC01E85FFE4F818534CFD7
:10021000BF92CF92DF92EF92FF920F931F93CF93F3
:10022000DF93B82E90E06BE070E0FBD3FC01E85F59
:10023000FE4FC080D180E280F3808B2DD7DF8C0110
:100240008B2DDDDFEC01BC0180E090E028EE33E097
:1002500040E050E0F8D30C1B1D0B980140E050E04B
:10026000F2D3A701960108D4B901CA0129E130E00F
:1002700040E050E0E8D39B01AC0184E156954795FE
:10028000379527958A95D1F7B901CA01DF91CF91AA
:100290001F910F91FF90EF90DF90CF90BF90089546
:1002A000CF92DF92EF92FF920F931F93282FD62EBB
:1002B00090E06BE070E0B5D3FC01E85FFE4FE480B6
:1002C000F58006811781822F90E06BE070E0A9D362
:1002D000FC01E85FFE4FC284822F9ADFE616F70624
:1002E0000807190728F48C2D6D2D00DF8FEF0BC048
:1002F0006E157F058007910728F48C2D6D2D11DF79
:1003000081E001C080E01F910F91FF90EF90DF909E
:10031000CF900895579A5F9A80EB94E00197F1F798
:100320000895579898E1892F8A95F1F789B125E3C7
:100330002A95F1F729B19A95F1F727FF0BC0992774
:1003400087FD909580959095392F331F3327331F64
:10035000832F089580E090E008958F929F92AF924E
:10036000BF92CF92DF92EF92FF920F931F93CF93A2
:10037000DF936B01E82EF92EC0E0D0E05B0108941A
:10038000A108B10825E3922E28C008E010E08824D7
:10039000C8DF282D30E0220F331F91E0882309F4B5
:1003A00090E0892E822A0150104091F7579ACA1581
:1003B000DB0531F45F9A892D8A95F1F75F9805C0C6
:1003C0005F98892D8A95F1F75F9A892D8A95F1F7C3
:1003D000A8DFF70181927F012196CC15DD05A8F2F7
:1003E000DF91CF911F910F91FF90EF90DF90CF9011
:1003F000BF90AF909F908F900895579A28E030E07B
:1004000095E387FF06C05F98492F4A95F1F75F9AF9
:1004100005C05F9A492F4A95F1F75F98492F4A9591
:10042000F1F72150304011F0880FEBCF5F9885E352
:10043000982F9A95F1F75F9A8A95F1F772CF5F98A6
:1004400080E18A95F1F785E5D8CFF89463DFF7DF8F
:1004500080EAD3DF83E0D1DF80E0CFDF8AEFCDDF3A
:1004600080E091E066E070E078DF54DF78940895F2
:1004700080E091E00895FC0185B194E0892785B979
:100480008081813139F4318120E0828190E0822BBA
:10049000932B67CE08950F931F93DF93CF93CDB720
:1004A000DEB762970FB6F894DEBF0FBECDBF8E01E8
:1004B0000F5F1F4F80E1F80111928A95E9F74CDE3A
:1004C0008130910581F08130910548F0FFEF80384F
:1004D0009F0789F02FEF84389207B9F40FC082E0AC
:1004E000898361E03FC0C4DFBC01C80146E050E041
:1004F000ECD266E037C080E079DE2EC085B192E0B4
:10050000892785B980E07BDE27C08032910548F1DC
:100510009C0120523040203171F0213118F4222307
:1005200031F01FC0203261F02432D9F40CC0832F87
:10053000B80126DE03C0832FB8012DDE60E112C0B2
:10054000832F34DE0CC081E060E0298B3A8B2ED201
:100550003A89832F0BDE90DDBC0180E090E0A8019A
:1005600057D264E0CE01019694D062960FB6F8940B
:10057000DEBF0FBECDBFCF91DF911F910F910895C8
:10058000229A2A98219A29982A9A81E031D25DDF0D
:1005900083E07BD08BE492E09BD08BE392E093D01E
:1005A00063D0509A5898539A5B98589A5B9A2A98B5
:1005B0004ED08BDD81E060E0F9D129980895DF937A
:1005C000CF9300D000D00F92CDB7DEB781E0898302
:1005D0008A831B821C82D4DF789490E05E010894A9
:1005E000A11CB11C83E0E82EF12CEC0EFD1E992419
:1005F000939421C0092F10E06501C00ED11EF601B1
:100600008080892F682D9D834BDEF701E00FF11F5D
:1006100020819D81821731F4882321F08394F60193
:10062000808204C0F501E00FF11F9082F701E00F16
:10063000F11F80839F5F9230E8F283E0D9D190E090
:10064000D9CF8EBD0DB407FEFDCF8EB5089584B110
:100650008C6284B985B1837D85B98CB580618CBD90
:100660008CB580648CBD089510923401E9EBF0E004
:1006700080818E7F808380818D7F808380E28093E4
:10068000B80085E48093BC000895880F8093BA0079
:1006900008956131A0F420913401243091F46093E5
:1006A0004901DC01ECE4F1E070E06E0F7F1F02C055
:1006B0008D918193E617F707D9F780E0089581E0DF
:1006C000089582E00895909347018093460108952C
:1006D00090934B0180934A010895882311F085EC93
:1006E00001C085E88093BC00089585ED8093BC002F
:1006F0008091BC0084FDFCCF10923401089585ECFC
:100700008093BC001092340108951F920F920FB68F
:100710000F9211242F933F934F935F936F937F9387
:100720008F939F93AF93BF93EF93FF938091B90003
:1007300090E0887F90708036910509F4C2C08136C0
:100740009105E4F58832910509F47EC0893291055E
:10075000C4F48031910509F472C08131910544F4EB
:10076000009709F40FC18830910509F00EC167C0E8
:100770008831910509F468C08032910509F005C1FE
:1007800078C08034910509F48AC0813491054CF415
:100790008033910509F46FC08833910509F0F5C0E5
:1007A0006EC08035910509F46EC08835910509F455
:1007B0007BC08834910509F0E8C0E6C0883991050E
:1007C00009F4D8C089399105ECF48837910509F40A
:1007D00078C0893791054CF48836910509F471C0C9
:1007E0008037910509F0D1C06CC08838910509F4B3
:1007F000C1C08039910509F46AC08038910509F0BB
:10080000C4C065C0803B910509F48CC0813B910553
:100810004CF4803A910509F46CC0883A910509F0CE
:10082000B4C080C0803C910509F4A7C0883C910504
:1008300009F4A3C0883B910509F0A7C088C0809146
:1008400020018093BB0013C090912101809122016F
:10085000981708F099C080912101E82FF0E0ED5D34
:10086000FE4F90819093BB008F5F8093210181E0C8
:1008700082C080E201C080E38093330185C088E3B9
:10088000809333014DC0809121019091BB00E82FEE
:10089000F0E0ED5DFE4F90838F5F8093210190919A
:1008A00021018091220163C0809121019091BB00C0
:1008B000E82FF0E0ED5DFE4F90838F5F8093210184
:1008C00063C083E08093340110923501D0CF8091D2
:1008D0003501803108F04EC0809135019091BB0008
:1008E000E82FF0E0EA5CFE4F90838F5F8093350144
:1008F000BECF80913501803130F4E0913501F0E0D8
:10090000EA5CFE4F1082F1DE60913501E091460114
:10091000F091470186E391E070E00995109235016E
:10092000EEDE33C084E080933401109248011092CF
:100930004901E0914A01F0914B01099580914901EB
:10094000882329F481E08093490110924C01809121
:100950004801E82FF0E0E45BFE4F90819093BB00EC
:100960008F5F8093480190914801809149019817C9
:1009700008F47DCF80E0B1DE08C081E0AEDE1092E9
:10098000340103C010923301B0DEFF91EF91BF91AB
:10099000AF919F918F917F916F915F914F913F9117
:1009A0002F910F900FBE0F901F90189590E048EC7C
:1009B00050E01BC0662311F4299A01C02A9A24EF43
:1009C00031E0FA013197F1F721503040D1F7662339
:1009D00011F4299801C02A9820ED37E0FA013197E7
:1009E000F1F721503040D1F79F5F981718F3089521
:1009F00090E048EC50E009C020E137E2FA0131977D
:100A0000F1F721503040D1F79F5F9817A8F3089570
:100A1000FA019193DA0111968C9311977183628395
:100A200008955527002480FF02C0060E571F660F49
:100A3000771F6115710521F096958795009799F7B5
:100A4000952F802D0895FF27EE27BB27AA2760FF4B
:100A500004C0A20FB31FE41FF51F220F331F441F52
:100A6000551F969587957795679589F7009776072F
:100A700071F7CF01BD010895A1E21A2EAA1BBB1B7D
:100A8000FD010DC0AA1FBB1FEE1FFF1FA217B3075A
:100A9000E407F50720F0A21BB30BE40BF50B661F70
:100AA000771F881F991F1A9469F760957095809534
:100AB00090959B01AC01BD01CF010895FB01DC01C4
:100AC00005900D920020E1F70895FB01DC0102C0C2
:100AD00001900D9241505040D8F70895DC01862FC7
:100AE000E82FF999FECF1FBA05C0E1BDF89AE3954A
:0E0AF00000B40D924150C8F70895F894FFCF5E
:100AFE0001020304050600020A0000002B0000009C
:0E0B0E000701000A0000004C00000006031062
:00000001FF
