:100000001FC039C038C037C036C035C034C033C057
:1000100032C031C030C02FC02EC02DC02CC02BC06C
:100020002AC029C028C0DAC54E4F3200434F0028ED
:10003000002C0070706200707062003300370000A6
:1000400011241FBECFEFD2E0DEBFCDBF11E0A0E094
:10005000B1E0EEEBF0E102C005900D92A434B107DF
:10006000D9F711E0A4E4B1E001C01D92A938B107AD
:10007000E1F7D2D222C8C4CF90917C008F70907FDC
:10008000892B806480937C0080917A00887F8668C9
:1000900080937A0080917A00806480937A008091C6
:1000A0007A0086FDFCCF2091780030917900932F63
:1000B00080E030E0282B392BC90108955A98089523
:1000C0005A9A0895529A5A9A0895DF93CF930F92AD
:1000D000CDB7DEB78983F2DF89811CD5F1DF0F90C0
:1000E000CF91DF9108950F931F93DF93CF930F92DA
:1000F000CDB7DEB7803111F008E001C008E110E0B3
:1001000005C0802F6983E1DF1F5F69811617C8F37F
:100110000F90CF91DF911F910F9108950F931F932F
:10012000DF93CF930F92CDB7DEB7803111F004E0AB
:1001300001C004E110E005C0802F6983C6DF1F5FA6
:1001400069811617C8F30F90CF91DF911F910F911E
:10015000089580914401909145010895909345013F
:10016000809344010895823030F4E82FF0E0E050AD
:10017000FF4F8081089580E0089590E0880F991FD7
:10018000815D9F4FFC0125913491CB01B90160C77E
:1001900090E0880F991F855C9F4FFC012591349159
:1001A000CB01B90155C7DF93CF9300D000D0CDB7B5
:1001B000DEB719821A821B821C82682F70E0660FDC
:1001C000771F660F771F60507040CE01019644E0A4
:1001D00050E04ED769817A818B819C810F900F907E
:1001E0000F900F90CF91DF910895DF93CF9300D0C0
:1001F00000D0CDB7DEB749835A836B837C83682FE9
:1002000070E0660F771F660F771F60507040CE0159
:10021000019644E050E03BD70F900F900F900F9065
:10022000CF91DF910895DF93CF93CDB7DEB7A2973B
:100230000FB6F894DEBF0FBECDBFFE013F96A0E320
:10024000B1E094E10D9001929150E1F7FE013196F9
:10025000A2E2B1E09EE00D9001929150E1F79E0183
:100260002F5F3F4F50E0E62FF0E0882341F4EE0F80
:10027000FF1FE20FF31FE40FF51F868507C0EE0F87
:10028000FF1FE40FF51FE20FF31F8081A2960FB648
:10029000F894DEBF0FBECDBFCF91DF910895282F18
:1002A00030E0220F331F220F331F2E5F3E4FC90154
:1002B0000895282F30E0220F331F220F331F265FAF
:1002C0003E4FC9010895282F30E0220F331F220F1F
:1002D000331F2E5E3E4FC9010895E82FF0E0EE0F68
:1002E000FF1FEE0FFF1FE65EFE4F6081718182816E
:1002F000938108959BB19F77882311F080E801C016
:1003000080E0982B9BB9089580E0F4DF579A8AE14A
:100310008A95F1F781E0EEDF80E197E20197F1F74E
:100320000895FF920F931F93082F81E0011180E041
:10033000E1DF12E4812F8A95F1F7F9B0812F8A95D8
:10034000F1F7802FD7DF812F8A95F1F789B11A95C0
:10035000F1F787FF0CC08F2D992787FD9095809529
:100360009095392F331F3327331F832F02C080E02E
:1003700090E01F910F91FF900895579881E0D1DF91
:10038000579A08950F931F93DF93CF930F92CDB792
:10039000DEB7182F08E0812F80786983C2DF110F44
:1003A000015069810023B9F7862FBBDFE6DF0F908C
:1003B000CF91DF911F910F910895CF92DF92EF922D
:1003C000FF920F931F93DF93CF930F92CDB7DEB7BA
:1003D0007B01082F192FCC24DD2417C0F80181914F
:1003E0008F010894C11CD11CCE14DF0439F461E0E4
:1003F00070E0442329F060E070E002C061E070E04A
:100400004983C0DF4981882329F0CE14DF0430F30B
:1004100081E001C080E00F90CF91DF911F910F919B
:10042000FF90EF90DF90CF900895AF92BF92CF9260
:10043000DF92EF92FF920F931F93DF93CF930F9270
:10044000CDB7DEB77B01082F192FAA24BB241EC00D
:100450000894A11CB11C91E0AE14BF0409F490E013
:10046000579888E0C82EDD2481E099835ADFDD0C9F
:10047000D82ACA949981CC20B9F7579AF801D19219
:100480008F01892F4EDF79DF882329F0AE14BF0456
:10049000F8F281E001C080E00F90CF91DF911F91D1
:1004A0000F91FF90EF90DF90CF90BF90AF900895A5
:1004B00080E020DF88E28A95F1F785E561E062CF90
:1004C000809346010895EF92FF920F931F93DF935D
:1004D000CF9300D000D0CDB7DEB77C018A018091E8
:1004E0004601898383E08A837B836C830DDFF894E4
:1004F000DFDFCE01019664E070E040E05EDF88233C
:1005000029F0C701B80191DF882311F4789402C063
:10051000789481E00F900F900F900F90CF91DF9122
:100520001F910F91FF90EF9008950F931F93FC017F
:100530004081318120E0828190E0822B932B25B194
:1005400034E0232725B9413119F0433399F502C02E
:1005500005DE30C08032910568F18097803251F518
:10056000438150E060E070E0762F652F542F4427E0
:10057000048110E020E030E0402B512B622B732BE4
:10058000762F652F542F4427058110E020E030E0BE
:10059000402B512B622B732B762F652F542F442722
:1005A000068110E020E030E0402B512B622B732BB2
:1005B000892F1BDE1F910F910895229A2A98219A64
:1005C00029982A9A81E07DD480EA7ADF83E891E055
:1005D0006AEF70E046E050E076DF83E0BFD28AE465
:1005E00093E0DFD285E992E0D7D2A7D2509A58980B
:1005F000539A5B98589A5B9A80E0B4D480E0BAD45E
:1006000081E0B0D481E0B6D42A988AD25BDD81E063
:1006100060E035D429980895D0DF80E16FEF7EDD6A
:1006200080E06FEF7BDDCEEAD0E080E061E05BDD73
:100630002197D9F7C8ECD0E080E161E054DD219743
:10064000D9F77894FFCFCF92DF92EF92FF920F937A
:100650001F93C82E44E6D42EEE24FF2487018C2D50
:1006600082DD0ADD9C0140E050E0E20EF31E041F33
:10067000151FDA94A1F7C801B70124E630E040E085
:1006800050E0A9D4C9011F910F91FF90EF90DF9026
:10069000CF9008952F923F924F925F926F927F92E8
:1006A0008F929F92AF92BF92CF92DF92EF92FF9282
:1006B0000F931F93DF93CF93CDB7DEB7A6970FB6F7
:1006C000F894DEBF0FBECDBF8E01095E1F4F80E1E3
:1006D000F80111928A95E9F73CDD1E821D82188689
:1006E0001F821A8619861B861C861D861E861F86FB
:1006F000188A198A1A8A1B8A1C8A1D8A1E8A1982DC
:100700001A821B821C828130910559F0813091053B
:1007100020F08730910591F40CC082E08F8B61E06E
:10072000DDC1C80163E871E046E050E098D466E0BE
:10073000D5C161E170E080E090E03AC0803291057F
:1007400008F4CBC180977C018432E9F1853238F41A
:100750008031B9F08032D1F0882379F0A9C18C3290
:1007600091F18D3220F4883209F0A2C112C0803399
:1007700099F0843309F09CC11DC0892FB801FDDCBC
:1007800003C0892FB80104DD60E1A8C1892F0BDD0A
:100790000FC0892F84DD02C0892F8BDDBC01CE0103
:1007A000019644E050E05BD469817A818B819C8121
:1007B000A8017CC18F2D87DDBC01CE01019644E0EC
:1007C00050E04DD46CC18F2D95D33B014C018F2D42
:1007D0009FD35B016C018F2DA8D3A60CB71CC81C3E
:1007E000D91CA60EB71EC81ED91EAB86BC86CD86E8
:1007F000DE868F2D7FD35B016C018F2D89D36A0D2F
:100800007B1D8C1D9D1D6F87788B898B9A8B8F2DFF
:1008100071D36B8B7C8B8D8B9E8B8F2DA3D38F2D68
:10082000A9D300E21EE4C8010197F1F78F2D0BDF79
:100830001C019E838D838F2DADD3C8010197F1F7E5
:100840008F2D01DF3C0198878F838F2D9BD3C801AB
:100850000197F1F78F2DF7DE8C019A8789878F2D0D
:1008600072D3682F70E080E090E039E0660F771F68
:10087000881F991F3A95D1F722E330E040E050E01D
:10088000CCD344245524221633064406550638F4A6
:10089000DA01C90182199309A409B50906C0D20178
:1008A000C101821B930BA40BB50B89839A83AB8385
:1008B000BC8388249924621673068406950638F44E
:1008C00059016A01A618B708C808D90806C064010A
:1008D0005301A21AB30AC40AD50A8A159B05AC05AE
:1008E000BD0510F45C016D01A816B906CA06DB0649
:1008F000B1F0621673068406950638F439014A0190
:10090000621873088408950804C0621A730A840A7E
:10091000950A69827A828B829C8261E001C060E0E4
:1009200089819A81AB81BC815801CC24DD24A21637
:10093000B306C406D50628F42A193B094C095D09FB
:1009400008C035014601621A730A840A950AA40197
:10095000930182179307A407B50710F49C01AD011A
:10096000281739074A075B0709F062E08E010F5F1D
:100970001F4F662E77242E2D2C32F1F4F301EE0F4B
:10098000FF1FE00FF11F6481758180E090E0AE01F0
:10099000495E5F4FA6D2F301EE0FFF1FEE0FFF1F60
:1009A000E00FF11F6285738584859585AE01455EF4
:1009B0005F4F97D268E092C0F301EE0FFF1FE00F88
:1009C000F11F048115810115110529F48FEF9FEFA7
:1009D000AFEFBFEF0BC0662371F48F2DBAD20817AB
:1009E000190748F48EEF9FEFAFEFBFEF89839A832B
:1009F000AB83BC8354C0B80180E090E022E330E0D8
:100A000040E050E0CFD25B016C01BAE0D694C794CD
:100A1000B794A794BA95D1F7A982BA82CB82DC8227
:100A20008F2D91D2682F70E080E090E06A197B09E9
:100A30008C099D09F301EE0FFF1FEE0FFF1FEC0F56
:100A4000FD1F2385348545855685ACD2A6019501C9
:100A5000C2D2022FE32EA42E652E29833A834B8324
:100A60005C838F2D3ADC9B01AC01602F7E2D8A2D9B
:100A7000962D98D2662EA72EE82E092F69837A83A9
:100A80008B839C838F2D8FDB9B01AC01662D7A2D90
:100A90008E2D902FA0D229833A834B835C8369816A
:100AA0007A818B819C81AE01495E5F4F1AD215C05D
:100AB0000E2D10E00853104053E0169507955A95F7
:100AC000E1F78F2D602F40E0AEDB8F8B8F2D602FF5
:100AD00041E0A9DB888F62E001C064E0CE01479667
:100AE00041D0A6960FB6F894DEBF0FBECDBFCF9112
:100AF000DF911F910F91FF90EF90DF90CF90BF900B
:100B0000AF909F908F907F906F905F904F903F90AD
:100B10002F9008958EBD0DB407FEFDCF8EB50895BC
:100B200084B18C6284B985B1837D85B98CB58361CC
:100B30008CBD8CB580648CBD089510925B01E9EB8F
:100B4000F0E080818E7F808380818D7F808380E252
:100B50008093B80085E48093BC000895880F80934B
:100B6000BA0008956131A0F420915B01243091F422
:100B700060937001DC01E3E7F1E070E06E0F7F1F2E
:100B800002C08D918193E617F707D9F780E00895A9
:100B900081E0089582E0089590936E0180936D0145
:100BA000089590937201809371010895882311F044
:100BB00085EC01C085E88093BC00089585ED8093A5
:100BC000BC008091BC0084FDFCCF10925B010895B5
:100BD00085EC8093BC0010925B0108951F920F92E8
:100BE0000FB60F9211242F933F934F935F936F9300
:100BF0007F938F939F93AF93BF93EF93FF938091D6
:100C0000B90090E0887F90708036910509F4C2C0E9
:100C100081369105E4F58832910509F47EC0893268
:100C20009105C4F48031910509F472C081319105B8
:100C300044F4009709F40FC18830910509F00EC102
:100C400067C08831910509F468C08032910509F0C8
:100C500005C178C08034910509F48AC081349105BA
:100C60004CF48033910509F46FC08833910509F085
:100C7000F5C06EC08035910509F46EC088359105C8
:100C800009F47BC08834910509F0E8C0E6C08839D2
:100C9000910509F4D8C089399105ECF4883791059C
:100CA00009F478C0893791054CF48836910509F428
:100CB00071C08037910509F0D1C06CC088389105AA
:100CC00009F4C1C08039910509F46AC080389105E2
:100CD00009F0C4C065C0803B910509F48CC0813B1C
:100CE00091054CF4803A910509F46CC0883A91055D
:100CF00009F0B4C080C0803C910509F4A7C0883CCD
:100D0000910509F4A3C0883B910509F0A7C088C0EC
:100D1000809147018093BB0013C09091480180915E
:100D20004901981708F099C080914801E82FF0E038
:100D3000E65BFE4F90819093BB008F5F80934801EC
:100D400081E082C080E201C080E380935A0185C0C7
:100D500088E380935A014DC0809148019091BB0077
:100D6000E82FF0E0E65BFE4F90838F5F80934801B1
:100D7000909148018091490163C080914801909110
:100D8000BB00E82FF0E0E65BFE4F90838F5F80931F
:100D9000480163C083E080935B0110925C01D0CF77
:100DA00080915C01803108F04EC080915C0190918F
:100DB000BB00E82FF0E0E35AFE4F90838F5F8093F3
:100DC0005C01BECF80915C01803130F4E0915C0128
:100DD000F0E0E35AFE4F1082F1DE60915C01E09199
:100DE0006D01F0916E018DE591E070E00995109232
:100DF0005C01EEDE33C084E080935B0110926F01F2
:100E000010927001E0917101F09172010995809149
:100E10007001882329F481E080937001109273019E
:100E200080916F01E82FF0E0ED58FE4F9081909394
:100E3000BB008F5F80936F0190916F018091700173
:100E4000981708F47DCF80E0B1DE08C081E0AEDE07
:100E500010925B0103C010925A01B0DEFF91EF9136
:100E6000BF91AF919F918F917F916F915F914F91C2
:100E70003F912F910F900FBE0F901F90189590E00B
:100E800048EC50E01BC0662311F4299A01C02A9A4D
:100E900024EF31E0FA013197F1F721503040D1F7DA
:100EA000662311F4299801C02A9820ED37E0FA0151
:100EB0003197F1F721503040D1F79F5F981718F321
:100EC000089590E048EC50E009C020E137E2FA01D3
:100ED0003197F1F721503040D1F79F5F9817A8F371
:100EE0000895FA019193DA0111968C931197718309
:100EF00062830895882329F428E938E040E050E02F
:100F000004C020EA39E041E050E0B901CA01089587
:100F1000882321F420E030E0A90104C020EA39E070
:100F200041E050E0B901CA010895882329F420E680
:100F30003BE543E050E004C020E430E64AE050E006
:100F4000B901CA010895882311F489E1089582E363
:100F50000895882319F423E430E002C028E631E044
:100F6000C9010895882319F43F9847980895549823
:100F70005C980895882319F45198599808952798F2
:100F80002F980895882319F43F9A47980895549A02
:100F90005C980895882319F4519A59980895279ACE
:100FA0002F980895FF27EE27BB27AA2760FF04C0CC
:100FB000A20FB31FE41FF51F220F331F441F551F3D
:100FC000969587957795679589F70097760771F7D6
:100FD000CF01BD010895A1E21A2EAA1BBB1BFD0182
:100FE0000DC0AA1FBB1FEE1FFF1FA217B307E40708
:100FF000F50720F0A21BB30BE40BF50B661F771F60
:10100000881F991F1A9469F760957095809590953F
:101010009B01AC01BD01CF01089597FB092E052668
:101020000ED057FD04D0D7DF0AD0001C38F45095FD
:101030004095309521953F4F4F4F5F4F0895F6F7FC
:1010400090958095709561957F4F8F4F9F4F089534
:10105000FB01DC0105900D920020E1F70895FB01F2
:10106000DC0102C001900D9241505040D8F7089524
:10107000DC01862FE82FF999FECF1FBA05C0E1BD2C
:10108000F89AE39500B40D924150C8F70895DC0139
:10109000862F02C02D9104D04150E0F70895262FED
:1010A000F999FECF1FBA1FBA81BD20BD0FB6F894C3
:0E10B000FA9AF99A0FBE01960895F894FFCFB0
:1010BE000002CDCCCC3EA69B443B9A99D93F000072
:1010CE0025436F12833A6F12833AE8030000E80358
:1010DE000000000086FAA87DCA31E80CF106FFFF79
:1010EE0000003E754B83659895BCAECCC7DBDFE93F
:0410FE00F7F6FFFF03
:00000001FF
