:100000001FC039C038C037C036C035C034C033C057
:1000100032C031C030C02FC02EC02DC02CC02BC06C
:100020002AC029C028C012C54E4F3200434F0028B5
:10003000002C0070706D0070706D00330037000090
:1000400011241FBECFEFD1E0DEBFCDBF11E0A0E095
:10005000B1E0E0EAFEE002C005900D92A831B107E0
:10006000D9F711E0A8E1B1E001C01D92AD35B107AB
:10007000E1F73BD413C7C4CF20917C00982F9F7029
:10008000207F922B906490937C0090917A008770EF
:10009000987F892B806880937A0080917A008064B1
:1000A00080937A0080917A0086FDFCCF20917800C1
:1000B00030917900932F80E030E0282B392BC90153
:1000C00008955A9808955A9A0895529A5A9A0895F6
:1000D000DF93CF930F92CDB7DEB78983F2DF8981AB
:1000E00051D4F1DF0F90CF91DF9108950F931F93BB
:1000F000DF93CF930F92CDB7DEB7803111F008E0D8
:1001000001C008E110E005C0802F6983E1DF1F5FB7
:1001100069811617C8F30F90CF91DF911F910F914E
:1001200008950F931F93DF93CF930F92CDB7DEB750
:10013000803111F004E001C004E110E005C0802F1F
:100140006983C6DF1F5F69811617C8F30F90CF91CF
:10015000DF911F910F9108958091180190911901DD
:10016000089590931901809318010895823030F416
:10017000E82FF0E0E050FF4F8081089580E008957F
:1001800090E0880F991F815D9F4FFC01259134916C
:10019000CB01B90164C690E0880F991F855C9F4F21
:1001A000FC0125913491CB01B90159C6DF93CF935E
:1001B00000D000D0CDB7DEB719821A821B821C8214
:1001C000682F70E0660F771F60507040CE01019677
:1001D00044E050E054D669817A818B819C810F90F4
:1001E0000F900F900F90CF91DF91089590E06BE00A
:1001F00070E0E8D5FC01EE5FFE4F80853DCF90E0DA
:100200006BE070E0DFD5FC01EE5FFE4F818534CFFF
:10021000BF92CF92DF92EF92FF920F931F93CF93F3
:10022000DF93B82E90E06BE070E0CCD5FC01EE5F80
:10023000FE4FC080D180E280F3808B2DD7DF8C0110
:100240008B2DDDDFEC01BC0180E090E028EE33E097
:1002500040E050E0C9D50C1B1D0B980140E050E078
:10026000C3D5A7019601D9D5B901CA0129E130E06A
:1002700040E050E0B9D59B01AC0184E1569547952B
:10028000379527958A95D1F7B901CA01DF91CF91AA
:100290001F910F91FF90EF90DF90CF90BF90089546
:1002A0008F929F92AF92BF92CF92DF92EF92FF9286
:1002B0000F931F93282F962E90E06BE070E082D56D
:1002C000FC01EE5FFE4FA480B580C680D780822FF0
:1002D00090E06BE070E076D5FC01EE5FFE4F82842B
:1002E000822F96DF7B018C01A616B706C806D906B9
:1002F00020F4882D692D15DF08C06A157B058C0553
:100300009D0518F4882D692DF1DEAE18BF08C00ACE
:10031000D10AB501C6011F910F91FF90EF90DF90B8
:10032000CF90BF90AF909F908F9008959BB19F7793
:10033000882311F080E801C080E0982B9BB90895D4
:1003400080E0F4DF579A8AE18A95F1F781E0EEDFE9
:1003500080E197E20197F1F70895FF920F931F93C1
:10036000082F81E0011180E0E1DF12E4812F8A95FE
:10037000F1F7F9B0812F8A95F1F7802FD7DF812F20
:100380008A95F1F789B11A95F1F787FF0CC08F2D87
:10039000992787FD909580959095392F331F3327A6
:1003A000331F832F02C080E090E01F910F91FF90D8
:1003B0000895579881E0D1DF579A08950F931F93BE
:1003C000DF93CF930F92CDB7DEB7182F08E0812FC0
:1003D00080786983C2DF110F015069810023B9F76A
:1003E000862FBBDFE6DF0F90CF91DF911F910F913A
:1003F0000895CF92DF92EF92FF920F931F93DF93B6
:10040000CF930F92CDB7DEB77B01082F192FCC24E5
:10041000DD2417C0F80181918F010894C11CD11C03
:10042000CE14DF0439F461E070E0442329F060E089
:1004300070E002C061E070E04983C0DF4981882339
:1004400029F0CE14DF0430F381E001C080E00F908A
:10045000CF91DF911F910F91FF90EF90DF90CF90A0
:100460000895AF92BF92CF92DF92EF92FF920F93D7
:100470001F93DF93CF930F92CDB7DEB77B01082F89
:10048000192FAA24BB241EC00894A11CB11C91E002
:10049000AE14BF0409F490E0579888E0C82EDD241C
:1004A00081E099835ADFDD0CD82ACA949981CC2047
:1004B000B9F7579AF801D1928F01892F4EDF79DF72
:1004C000882329F0AE14BF04F8F281E001C080E077
:1004D0000F90CF91DF911F910F91FF90EF90DF90E0
:1004E000CF90BF90AF90089580E020DF88E28A959A
:1004F000F1F785E561E062CF80931A010895EF92EC
:10050000FF920F931F93DF93CF9300D000D0CDB70E
:10051000DEB77C018A0180911A01898383E08A8396
:100520007B836C830DDFF894DFDFCE01019664E0FE
:1005300070E040E05EDF882329F0C701B80191DF59
:10054000882311F4789402C0789481E00F900F9082
:100550000F900F90CF91DF911F910F91FF90EF902F
:100560000895FC0185B194E0892785B980818131A6
:1005700039F4318120E0828190E0822B932BF1CD00
:1005800008952F923F924F925F926F927F928F9237
:100590009F92AF92BF92CF92DF92EF92FF920F9312
:1005A0001F93DF93CF93CDB7DEB7A3970FB6F89421
:1005B000DEBF0FBECDBF8E010D5E1F4F80E1F80183
:1005C00011928A95E9F7C8DD1A8219821C821B8272
:1005D0001E821D821F82188619861A861B861C861B
:1005E0001D861E861F86188A198A1A8A81309105EF
:1005F00059F08130910520F08730910591F40CC0BD
:1006000082E08B8B61E02AC1C80167E571E046E0BA
:1006100050E02CD466E022C161E070E080E090E020
:100620002BC08032910508F418C18097E92E282F3D
:100630008032C9F0813230F4882361F0803109F0D2
:100640000CC10CC08C32D1F08033C1F0843209F07F
:1006500004C10CC0892FB80193DD03C0892FB801F4
:100660009ADD60E1FBC0892FA1DD06C0892F7EDD08
:1006700003DDBC0180E090E0A801EEC08E2D2BA32D
:1006800071D32B013C018E2D7BD34B015C018E2D50
:100690007CD3840C951CA61CB71C860E971EA81E26
:1006A000B91E8F829886A986BA868E2D5BD34B01A0
:1006B0005C018E2D65D3680D791D8A1D9B1D6B878E
:1006C0007C878D879E878E2D4DD36F87788B898B06
:1006D0009A8B3F9847985198599800E21EE4C801B8
:1006E0000197F1F78E2D42DDC7DC6C019A83898377
:1006F000519A59988E2D3ADDBFDC4C019C838B8337
:10070000C8010197F1F73F9A47988E2D2FDDB4DC91
:100710009E838D83C8010197F1F78E2D3BD32BA1CA
:10072000C816D90640F08E2D3ED32BA18816990607
:1007300020F401E003C000E001C002E010E06E011F
:100740000894C11CD11C2C32F1F4F801EE0FFF1FEC
:10075000EC0DFD1D6081718180E090E0AE014D5E89
:100760005F4FF7D2F801EE0FFF1FEE0FFF1FEC0DEA
:10077000FD1D6681778180859185AE01495E5F4F61
:10078000E8D268E06BC0F801EE0FFF1FEC0DFD1D15
:1007900020803180B10180E090E022E330E040E051
:1007A00050E022D32B013C018E2D06D3882E9924B4
:1007B000AA24BB249AE0880C991CAA1CBB1C9A95FD
:1007C000D1F784149504A604B704C8F184189508D9
:1007D000A608B708F801EE0FFF1FEE0FFF1FEC0D84
:1007E000FD1DE680F780008511856FEF7FEF8FEFAD
:1007F0009FEFA501940111D32E153F054007510726
:1008000090F421143104F9F0C501B401A30192015F
:1008100004D3B901CA01A8019701E6D2262F372FC8
:10082000482F592F14C02114310469F0C501B401B7
:10083000A8019701D9D2A3019201EFD208C020E00C
:1008400030E0A90104C02FEF3FEF4FEF5FEFCA0187
:10085000B901AE014D5E5F4F7CD264E0CE0143969C
:10086000B9D0A3960FB6F894DEBF0FBECDBFCF911F
:10087000DF911F910F91FF90EF90DF90CF90BF908D
:10088000AF909F908F907F906F905F904F903F9030
:100890002F900895229A2A98219A29982A9A81E0DD
:1008A00048D280EA29DE87E591E06AEF70E046E011
:1008B00050E025DE83E08AD081EC92E0AAD081EB83
:1008C00092E0A2D072D0509A5898539A5B98589A56
:1008D0005B9A3F984798519859982A9859D0F5DBD8
:1008E00081E060E004D229980895DF93CF9300D08F
:1008F00000D00F92CDB7DEB781E089838A831B8257
:100900001C82C8DF789420E07E010894E11CF11C71
:10091000AA24A39453E0C52ED12CCC0EDD1E2CC0EE
:10092000022F10E0F701E00FF11FB080822F6B2D36
:100930002D83B6DC2D81161617061806190614F439
:1009400081E001C08FEFF601E00FF11F9081891760
:1009500041F4882331F0F701E00FF11FB394B08226
:1009600006C0F701E00FF11FA082882321F0F601F5
:10097000E00FF11F80832F5F223090F283E0D9D106
:1009800020E0CECF8EBD0DB407FEFDCF8EB508950D
:1009900084B18C6284B985B1837D85B98CB583615E
:1009A0008CBD8CB580648CBD089510922F01E9EB4D
:1009B000F0E080818E7F808380818D7F808380E2E4
:1009C0008093B80085E48093BC000895880F8093DD
:1009D000BA0008956131A0F420912F01243091F4E0
:1009E00060934401DC01E7E4F1E070E06E0F7F1FEB
:1009F00002C08D918193E617F707D9F780E008953B
:100A000081E0089582E0089590934201809341012E
:100A1000089590934601809345010895882311F02D
:100A200085EC01C085E88093BC00089585ED809336
:100A3000BC008091BC0084FDFCCF10922F01089572
:100A400085EC8093BC0010922F0108951F920F92A5
:100A50000FB60F9211242F933F934F935F936F9391
:100A60007F938F939F93AF93BF93EF93FF93809167
:100A7000B90090E0887F90708036910509F4C2C07B
:100A800081369105E4F58832910509F47EC08932FA
:100A90009105C4F48031910509F472C0813191054A
:100AA00044F4009709F40FC18830910509F00EC194
:100AB00067C08831910509F468C08032910509F05A
:100AC00005C178C08034910509F48AC0813491054C
:100AD0004CF48033910509F46FC08833910509F017
:100AE000F5C06EC08035910509F46EC0883591055A
:100AF00009F47BC08834910509F0E8C0E6C0883964
:100B0000910509F4D8C089399105ECF4883791052D
:100B100009F478C0893791054CF48836910509F4B9
:100B200071C08037910509F0D1C06CC0883891053B
:100B300009F4C1C08039910509F46AC08038910573
:100B400009F0C4C065C0803B910509F48CC0813BAD
:100B500091054CF4803A910509F46CC0883A9105EE
:100B600009F0B4C080C0803C910509F4A7C0883C5E
:100B7000910509F4A3C0883B910509F0A7C088C07E
:100B800080911B018093BB0013C090911C01809148
:100B90001D01981708F099C080911C01E82FF0E022
:100BA000E25EFE4F90819093BB008F5F80931C01AB
:100BB00081E082C080E201C080E380932E0185C085
:100BC00088E380932E014DC080911C019091BB0061
:100BD000E82FF0E0E25EFE4F90838F5F80931C0170
:100BE00090911C0180911D0163C080911C01909126
:100BF000BB00E82FF0E0E25EFE4F90838F5F8093B2
:100C00001C0163C083E080932F0110923001D0CF8C
:100C100080913001803108F04EC080913001909178
:100C2000BB00E82FF0E0EF5CFE4F90838F5F809376
:100C30003001BECF80913001803130F4E09130013D
:100C4000F0E0EF5CFE4F1082F1DE60913001E09148
:100C50004101F091420181E391E070E00995109229
:100C60003001EEDE33C084E080932F011092430107
:100C700010924401E0914501F0914601099580915F
:100C80004401882329F481E08093440110924701B4
:100C900080914301E82FF0E0E95BFE4F9081909353
:100CA000BB008F5F80934301909143018091440189
:100CB000981708F47DCF80E0B1DE08C081E0AEDE99
:100CC00010922F0103C010922E01B0DEFF91EF9120
:100CD000BF91AF919F918F917F916F915F914F9154
:100CE0003F912F910F900FBE0F901F90189590E09D
:100CF00048EC50E01BC0662311F4299A01C02A9ADF
:100D000024EF31E0FA013197F1F721503040D1F76B
:100D1000662311F4299801C02A9820ED37E0FA01E2
:100D20003197F1F721503040D1F79F5F981718F3B2
:100D3000089590E048EC50E009C020E137E2FA0164
:100D40003197F1F721503040D1F79F5F9817A8F302
:100D50000895FA019193DA0111968C93119771839A
:100D600062830895882329F428E938E040E050E0C0
:100D700004C020EA39E041E050E0B901CA01089519
:100D80006EEE70E480E090E008956EE479E882E031
:100D900090E00895882319F425EB30E002C02CEB95
:100DA00030E0C9010895882319F427E330E002C038
:100DB0002DE730E0C9010895882311F489E10895F1
:100DC00082E308955527002480FF02C0060E571FB6
:100DD000660F771F6115710521F09695879500972D
:100DE00099F7952F802D0895FF27EE27BB27AA2777
:100DF00060FF04C0A20FB31FE41FF51F220F331FB3
:100E0000441F551F969587957795679589F70097A5
:100E1000760771F7CF01BD010895A1E21A2EAA1B32
:100E2000BB1BFD010DC0AA1FBB1FEE1FFF1FA2179A
:100E3000B307E407F50720F0A21BB30BE40BF50B97
:100E4000661F771F881F991F1A9469F76095709520
:100E5000809590959B01AC01BD01CF010895FB01E8
:100E6000DC0105900D920020E1F70895FB01DC0103
:100E700002C001900D9241505040D8F70895DC0116
:100E8000862FE82FF999FECF1FBA05C0E1BDF89A69
:100E9000E39500B40D924150C8F70895F894FFCF40
:100EA00000020A0000002B0000000701100A0000E9
:080EB000004C000000060300E5
:00000001FF
