:100000001FC039C038C037C036C035C034C033C057
:1000100032C031C030C02FC02EC02DC02CC02BC06C
:100020002AC029C028C058C64E4F3200434F00286E
:10003000002C0070706200707062003300370000A6
:1000400011241FBECFEFD2E0DEBFCDBF11E0A0E094
:10005000B1E0E0E9F1E102C005900D92A635B107EB
:10006000D9F711E0A6E5B1E001C01D92AB39B107A7
:10007000E1F71FD38BC8C4CF20917C00982F9F70CD
:10008000207F922B906490937C0090917A008770EF
:10009000987F892B806880937A0080917A008064B1
:1000A00080937A0080917A0086FDFCCF20917800C1
:1000B00030917900932F80E030E0282B392BC90153
:1000C00008955A9808955A9A0895529A5A9A0895F6
:1000D000DF93CF930F92CDB7DEB78983F2DF8981AB
:1000E00097D5F1DF0F90CF91DF9108950F931F9374
:1000F000DF93CF930F92CDB7DEB7803111F008E0D8
:1001000001C008E110E005C0802F6983E1DF1F5FB7
:1001100069811617C8F30F90CF91DF911F910F914E
:1001200008950F931F93DF93CF930F92CDB7DEB750
:10013000803111F004E001C004E110E005C0802F1F
:100140006983C6DF1F5F69811617C8F30F90CF91CF
:10015000DF911F910F910895809156019091570161
:10016000089590935701809356010895823030F49A
:10017000E82FF0E0E050FF4F8081089580E008957F
:1001800090E0880F991F815D9F4FFC01259134916C
:10019000CB01B901DCC790E0880F991F855C9F4FA8
:1001A000FC0125913491CB01B901D1C7DF93CF93E5
:1001B00000D000D0CDB7DEB719821A821B821C8214
:1001C000682F70E0660F771F660F771F60507040D2
:1001D000CE01019644E050E0CAD769817A818B81D3
:1001E0009C810F900F900F900F90CF91DF91089509
:1001F00090E06BE070E05ED7FC01EE5FFE4F808523
:100200003BCF90E06BE070E055D7FC01EE5FFE4F16
:10021000818532CFBF92CF92DF92EF92FF920F9300
:100220001F93CF93DF93B82E90E06BE070E042D73E
:10023000FC01EE5FFE4FC080D180E280F3808B2D09
:10024000D7DF8C018B2DDDDFEC01BC0180E090E07D
:1002500028EE33E040E050E03FD70C1B1D0B980127
:1002600040E050E039D7A70196014FD7B901CA0144
:1002700029E130E040E050E02FD79B01AC0184E160
:1002800056954795379527958A95D1F7B901CA01B3
:10029000DF91CF911F910F91FF90EF90DF90CF9062
:1002A000BF9008958F929F92AF92BF92CF92DF92AC
:1002B000EF92FF920F931F93282F962E90E06BE002
:1002C00070E0F8D6FC01EE5FFE4FA480B580C680DA
:1002D000D780822F90E06BE070E0ECD6FC01EE5FFF
:1002E000FE4F8284822F96DF7B018C01A616B70613
:1002F000C806D90620F4882D692D13DF08C06A15B9
:100300007B058C059D0518F4882D692DEFDEAE1850
:10031000BF08C00AD10AB501C6011F910F91FF9015
:10032000EF90DF90CF90BF90AF909F908F90089507
:10033000DF93CF93CDB7DEB76E970FB6F894DEBFDD
:100340000FBECDBFFE013D96A4E4B1E092E10D9059
:1003500001929150E1F7FE013196A8E3B1E09CE0F3
:100360000D9001929150E1F79E012F5F3F4F50E0B9
:10037000E62FF0E0882341F4EE0FFF1FE20FF31F9A
:10038000E40FF51F848507C0EE0FFF1FE40FF51F74
:10039000E20FF31F80816E960FB6F894DEBF0FBE9A
:1003A000CDBFCF91DF910895282F30E0220F331F6A
:1003B000220F331F285E3E4FC9010895282F30E0D9
:1003C000220F331F220F331F205E3E4FC9010895B5
:1003D000282F30E0220F331F220F331F285D3E4F9E
:1003E000C9010895E82FF0E0EE0FFF1FEE0FFF1F89
:1003F000E05DFE4F608171818281938108959BB1A0
:100400009F77882311F080E801C080E0982B9BB98A
:10041000089580E0F4DF579A8AE18A95F1F781E048
:10042000EEDF80E197E20197F1F70895FF920F93D5
:100430001F93082F81E0011180E0E1DF12E4812F9A
:100440008A95F1F7F9B0812F8A95F1F7802FD7DFE0
:10045000812F8A95F1F789B11A95F1F787FF0CC0C2
:100460008F2D992787FD909580959095392F331F73
:100470003327331F832F02C080E090E01F910F913C
:10048000FF900895579881E0D1DF579A08950F9310
:100490001F93DF93CF930F92CDB7DEB7182F08E0ED
:1004A000812F80786983C2DF110F01506981002399
:1004B000B9F7862FBBDFE6DF0F90CF91DF911F9159
:1004C0000F910895CF92DF92EF92FF920F931F93B7
:1004D000DF93CF930F92CDB7DEB77B01082F192F93
:1004E000CC24DD2417C0F80181918F010894C11C30
:1004F000D11CCE14DF0439F461E070E0442329F00C
:1005000060E070E002C061E070E04983C0DF4981D3
:10051000882329F0CE14DF0430F381E001C080E0AD
:100520000F90CF91DF911F910F91FF90EF90DF908F
:10053000CF900895AF92BF92CF92DF92EF92FF9249
:100540000F931F93DF93CF930F92CDB7DEB77B014D
:10055000082F192FAA24BB241EC00894A11CB11C6B
:1005600091E0AE14BF0409F490E0579888E0C82EDB
:10057000DD2481E099835ADFDD0CD82ACA94998161
:10058000CC20B9F7579AF801D1928F01892F4EDF0D
:1005900079DF882329F0AE14BF04F8F281E001C0AE
:1005A00080E00F90CF91DF911F910F91FF90EF901E
:1005B000DF90CF90BF90AF90089580E020DF88E279
:1005C0008A95F1F785E561E062CF8093580108953F
:1005D000EF92FF920F931F93DF93CF9300D000D041
:1005E000CDB7DEB77C018A0180915801898383E011
:1005F0008A837B836C830DDFF894DFDFCE01019665
:1006000064E070E040E05EDF882329F0C701B801B4
:1006100091DF882311F4789402C0789481E00F90E0
:100620000F900F900F90CF91DF911F910F91FF903E
:10063000EF900895FC0185B194E0892785B9808108
:10064000813139F4318120E0828190E0822B932B3B
:1006500088CD0895229A2A98219A29982A9A81E089
:10066000AED480EAB2DF85E991E06AEF70E046E05F
:1006700050E0AEDF83E0F0D28DEC93E010D38AE15E
:1006800093E008D3D8D2509A5898539A5B98589AC6
:100690005B9A80E0EFD480E0F5D481E0EBD481E098
:1006A000F1D42A98BBD211DD81E060E066D42998AC
:1006B0000895DF93CF9300D000D00F92CDB7DEB76F
:1006C00081E089838A831B821C82C4DF789420E0C6
:1006D0007E010894E11CF11CAA24A39483E0C82E97
:1006E000D12CCC0EDD1E2CC0022F10E0F701E00F44
:1006F000F11FB080822F6B2D2D83D4DD2D81161636
:1007000017061806190614F481E001C08FEFF601F0
:10071000E00FF11F9081891741F4882331F0F70130
:10072000E00FF11FB394B08206C0F701E00FF11F94
:10073000A082882321F0F601E00FF11F80832F5F54
:10074000223090F283E03BD420E0CECFCF92DF92F4
:10075000EF92FF920F931F93C82E94E6D92EEE24AA
:10076000FF2487018C2D02DD87DC9C0140E050E0F6
:10077000E20EF31E041F151FDA94A1F7C801B7019A
:1007800024E630E040E050E0C0D4C9011F910F9151
:10079000FF90EF90DF90CF9008952F923F924F926D
:1007A0005F926F927F928F929F92AF92BF92CF9201
:1007B000DF92FF920F931F93DF93CF93CDB7DEB7F6
:1007C000E1970FB6F894DEBF0FBECDBF8E01095E74
:1007D0001F4F80E1D8011D928A95E9F7BDDC1E828A
:1007E0001D8218861F821A8619861B861C861D8606
:1007F0001E861F86188A198A1A8A1B8A1C8A1D8AD5
:100800001E8A19821A821B821C828130910559F03E
:100810008130910520F08730910591F40CC082E081
:100820008F8B61E0DAC1C80165E971E046E050E014
:1008300095D466E0D2C162E070E080E090E03BC019
:100840008032910508F4C8C18097F92E282F843290
:10085000E9F1853238F48031B9F08032D1F0882363
:1008600079F0A5C18C3291F18D3220F4883209F0F3
:100870009EC112C0803399F0843309F098C11DC025
:10088000892FB8017DDC03C0892FB80184DC60E1C9
:10089000A4C1892F8BDC0FC0892F86DD02C0892F70
:1008A0008DDDBC01CE01019644E050E057D4698152
:1008B0007A818B819C81A80178C1892F89DDBC0157
:1008C000CE01019644E050E049D468C18F2D29AB98
:1008D0008FD33B014C018F2D99D35B016C018F2D80
:1008E000A3D3A60CB71CC81CD91CA60EB71EC81EC5
:1008F000D91EAB86BC86CD86DE868F2D79D35B0173
:100900006C018F2D83D36A0D7B1D8C1D9D1D6F8700
:10091000788B898B9A8B8F2D6BD36B8B7C8B8D8B8C
:100920009E8B8F2DA7D38F2DADD300E21EE4C8017F
:100930000197F1F78F2D0ADF5C019E838D838F2D48
:10094000B1D3C8010197F1F78F2D00DF4C019887D3
:100950008F838F2D9FD3C8010197F1F78F2DF6DE7E
:100960009A8789878F2D6ED329A9A816B90640F0DA
:100970008F2D71D329A98816990620F481E003C030
:1009800080E001C082E03E010894611C711C882E49
:1009900099242C32F1F4F401EE0FFF1FE60DF71D40
:1009A0006481758180E090E0AE01495E5F4F17D3AE
:1009B000F401EE0FFF1FEE0FFF1FE60DF71D62851E
:1009C000738584859585AE01455E5F4F08D368E0E9
:1009D00004C1F401EE0FFF1FE60DF71D8481958120
:1009E0009CA78BA7A0E0B0E08DA79EA7AFA7B8AB50
:1009F000BC01CD0122E330E040E050E06DD36FA3B5
:100A000078A789A79AA78F2D2FD3A82EBB24CC24F3
:100A1000DD244AE0AA0CBB1CCC1CDD1C4A95D1F796
:100A20008FA198A5A9A5BAA5A816B906CA06DB067E
:100A300028F419821A821B821C8288C08FA198A573
:100A4000A9A5BAA5A81AB90ACA0ADB0AA982BA8254
:100A5000CB82DC82F401EE0FFF1FEE0FFF1FE60DCD
:100A6000F71D628473848484958422242A94322C12
:100A70002101C201B101A601950147D32615370511
:100A80004805590520F5ABA5BCA5109709F45AC037
:100A9000C601B50122E330E040E050E036D3CA01A0
:100AA000B901A401930118D3862E672EA82E092F11
:100AB00069837A838B839C838F2DD6D2682F70E0D5
:100AC00080E090E02DA53EA54FA558A91BC0C6010A
:100AD000B501A401930100D3862E672EA82E092FFD
:100AE00069837A838B839C83EBA5FCA5309751F1B6
:100AF0008F2DBAD2682F70E080E090E02FA138A54A
:100B000049A55AA5E9D29B01AC01682D762D8A2D05
:100B1000902FFBD2022FA32E842E652E29833A8399
:100B20004B835C838F2DA0D2282F30E040E050E033
:100B3000602F7A2D882D962DCFD269837A838B836F
:100B40009C8304C029823A824B825C8269807A80CD
:100B50008B809C808F2D46DCA4019301BDD25B016C
:100B60006C01A982BA82CB82DC82A614B704C804C5
:100B7000D90448F48FEF9FEFAFEFBFEF89839A83DB
:100B8000AB83BC830BC08F2D11DB9B01AC01C60175
:100B9000B501BBD229833A834B835C8369817A8117
:100BA0008B819C81AE01495E5F4F19D215C0022F27
:100BB00010E00853104023E0169507952A95E1F7B9
:100BC0008F2D602F40E0B4DB8F8B8F2D602F41E0A5
:100BD000AFDB888F62E001C064E0CE01479640D071
:100BE000E1960FB6F894DEBF0FBECDBFCF91DF9177
:100BF0001F910F91FF90DF90CF90BF90AF909F908B
:100C00008F907F906F905F904F903F902F900895BE
:100C10008EBD0DB407FEFDCF8EB5089584B18C62F4
:100C200084B985B1837D85B98CB583618CBD8CB564
:100C300080648CBD089510926D01E9EBF0E0808135
:100C40008E7F808380818D7F808380E28093B80057
:100C500085E48093BC000895880F8093BA000895BE
:100C60006131A0F420916D01243091F460938201F0
:100C7000DC01E5E8F1E070E06E0F7F1F02C08D91AE
:100C80008193E617F707D9F780E0089581E008958A
:100C900082E008959093800180937F01089590935E
:100CA0008401809383010895882311F085EC01C0AD
:100CB00085E88093BC00089585ED8093BC00809109
:100CC000BC0084FDFCCF10926D01089585EC8093EB
:100CD000BC0010926D0108951F920F920FB60F92F3
:100CE00011242F933F934F935F936F937F938F9331
:100CF0009F93AF93BF93EF93FF938091B90090E0E0
:100D0000887F90708036910509F4C2C081369105C4
:100D1000E4F58832910509F47EC089329105C4F466
:100D20008031910509F472C08131910544F4009736
:100D300009F40FC18830910509F00EC167C08831F0
:100D4000910509F468C08032910509F005C178C0A9
:100D50008034910509F48AC0813491054CF48033C4
:100D6000910509F46FC08833910509F0F5C06EC094
:100D70008035910509F46EC08835910509F47BC072
:100D80008834910509F0E8C0E6C08839910509F476
:100D9000D8C089399105ECF48837910509F478C0F9
:100DA000893791054CF48836910509F471C0803774
:100DB000910509F0D1C06CC08838910509F4C1C013
:100DC0008039910509F46AC08038910509F0C4C0E2
:100DD00065C0803B910509F48CC0813B91054CF4C2
:100DE000803A910509F46CC0883A910509F0B4C0C5
:100DF00080C0803C910509F4A7C0883C910509F4A6
:100E0000A3C0883B910509F0A7C088C08091590113
:100E10008093BB0013C090915A0180915B01981799
:100E200008F099C080915A01E82FF0E0E45AFE4F93
:100E300090819093BB008F5F80935A0181E082C0C4
:100E400080E201C080E380936C0185C088E38093D9
:100E50006C014DC080915A019091BB00E82FF0E0E9
:100E6000E45AFE4F90838F5F80935A0190915A010C
:100E700080915B0163C080915A019091BB00E82F83
:100E8000F0E0E45AFE4F90838F5F80935A0163C075
:100E900083E080936D0110926E01D0CF80916E013E
:100EA000803108F04EC080916E019091BB00E82F18
:100EB000F0E0E159FE4F90838F5F80936E01BECFCB
:100EC00080916E01803130F4E0916E01F0E0E159E3
:100ED000FE4F1082F1DE60916E01E0917F01F09192
:100EE00080018FE691E070E0099510926E01EEDED0
:100EF00033C084E080936D011092810110928201D1
:100F0000E0918301F0918401099580918201882309
:100F100029F481E080938201109285018091810102
:100F2000E82FF0E0EB57FE4F90819093BB008F5F6E
:100F3000809381019091810180918201981708F43A
:100F40007DCF80E0B1DE08C081E0AEDE10926D01A1
:100F500003C010926C01B0DEFF91EF91BF91AF9191
:100F60009F918F917F916F915F914F913F912F91C1
:100F70000F900FBE0F901F90189590E048EC50E036
:100F80001BC0662311F4299A01C02A9A24EF31E08C
:100F9000FA013197F1F721503040D1F7662311F46F
:100FA000299801C02A9820ED37E0FA013197F1F72E
:100FB00021503040D1F79F5F981718F3089590E0C3
:100FC00048EC50E009C020E137E2FA013197F1F72F
:100FD00021503040D1F79F5F9817A8F30895FA0188
:100FE0009193DA0111968C9311977183628308951E
:100FF000882329F428E938E040E050E004C020EAE2
:1010000039E041E050E0B901CA010895882329F48C
:1010100020EF35E540E050E004C020EA39E041E04F
:1010200050E0B901CA010895882329F420E63BE580
:1010300043E050E004C020E430E64AE050E0B9016B
:10104000CA010895882319F42FE931E002C029EF7D
:1010500032E0C9010895882319F422EE30E002C07D
:101060002BE631E0C9010895882311F489E1089540
:1010700082E30895882319F43F9847980895549877
:101080005C980895882319F45198599808952798E1
:101090002F980895882319F43F9A47980895549AF1
:1010A0005C980895882319F4519A59980895279ABD
:1010B0002F9808955527002480FF02C0060E571F61
:1010C000660F771F6115710521F09695879500973A
:1010D00099F7952F802D0895FF27EE27BB27AA2784
:1010E00060FF04C0A20FB31FE41FF51F220F331FC0
:1010F000441F551F969587957795679589F70097B3
:10110000760771F7CF01BD010895A1E21A2EAA1B3F
:10111000BB1BFD010DC0AA1FBB1FEE1FFF1FA217A7
:10112000B307E407F50720F0A21BB30BE40BF50BA4
:10113000661F771F881F991F1A9469F7609570952D
:10114000809590959B01AC01BD01CF010895FB01F5
:10115000DC0105900D920020E1F70895FB01DC0110
:1011600002C001900D9241505040D8F70895DC0123
:10117000862FE82FF999FECF1FBA05C0E1BDF89A76
:10118000E39500B40D924150C8F70895F894FFCF4D
:1011900000020A000000500000000701100A0000D1
:1011A000004C000000060300CDCCCC3EA69B443B87
:1011B0009A99D93F0000254317B7D13817B7D139CD
:1011C00010270000C409000086FAA87DCA31E80C87
:1011D000F106FFFF3E754B83659895BCAECCC7DB2F
:0611E000DFE9F7F6FFFF56
:00000001FF
