:1000000013C02DC02CC02BC02AC029C028C027C0B7
:1000100026C025C024C023C022C021C020C01FC0CC
:100020001EC01DC01CC0A0C111241FBECFEFD1E057
:10003000DEBFCDBF11E0A0E0B1E0EEE0F6E002C02F
:1000400005900D92A230B107D9F711E0A2E0B1E01E
:1000500001C01D92A034B107E1F797D0D6C2D0CF2E
:1000600020917C00982F9F70207F922B906490931A
:100070007C0090917A008770987F892B80688093AC
:100080007A0080917A00806480937A0080917A006F
:1000900086FDFCCF2091780030917900932F80E08D
:1000A00030E0282B392BC901089580910301089570
:1000B00080910201089580930301089580930201C5
:1000C0000895823030F4E82FF0E0E050FF4F808157
:1000D000089580E00895CF93DF93EC018881EBDFF2
:1000E0008881882311F0823211F48981E7DFDF9162
:1000F000CF91089590E0880F991F70E0B4E0A2E0DE
:1001000020E533EC0CC0662319F445B14A2702C040
:1001100045B14B2745B9F9013197F1F77F5F472F7B
:1001200050E0481759077CF30895DF93CF9300D030
:1001300000D0CDB7DEB719821A821B821C82B5DFD0
:10014000813139F0823229F0882331F482E060E095
:1001500002C082E061E0CEDFA8DF813131F082327F
:1001600021F0882339F482E004C0A2DFAADF78DF1F
:100170009B838C83CE01019664E0BAD00F900F90E0
:100180000F900F90CF91DF910895229A2A98219A8B
:1001900029982A9A80E197E229E130E0F901319724
:1001A000F1F70197D9F783E029D085E990E0BFD036
:1001B0008BE690E0B7D011D0509A5898539A5B983C
:1001C000589A5B9A2A98789482E060E093DFFFCF98
:1001D0009091190180E1891B089510921801E9EBB3
:1001E000F0E080818E7F808380818D7F80838DEFA2
:1001F0008093B80085E48093BC000895880F8093B5
:10020000BA000895413188F5909118019923E1F7DA
:1002100091E0909318019FEF9093170110920501C0
:10022000942F915090930601880F81608093040170
:1002300085EE8093BC00809118018130E1F38091BC
:100240000501841710F440910501E7E0F1E0262F45
:10025000372FD901242F30E02E0F3F1F02C081918C
:100260008D93E217F307D9F701C040E0842F08957A
:100270004131B0F5909118019923E1F792E0909304
:1002800018019FEF9093170110920501409306010A
:10029000DB01E7E0F1E050E04E0F5F1F02C09D91EF
:1002A0009193E417F507D9F790E0880F991F809391
:1002B000040185EE8093BC00222321F08091180177
:1002C0008230E1F3809117018F3F61F08091170137
:1002D000803251F080911701803341F483E008951A
:1002E00081E0089580E0089582E0089584E0089513
:1002F0006131A0F420911801243091F460932D0114
:10030000DC01E0E3F1E070E06E0F7F1F02C08D9131
:100310008193E617F707D9F780E0089581E0089503
:1003200082E0089590932B0180932A010895909381
:100330002F0180932E010895882311F085EC01C0D0
:1003400085E88093BC00089585ED8093BC00809182
:10035000BC0084FDFCCF10921801089585EC8093B9
:10036000BC001092180108951F920F920FB60F92C1
:1003700011242F933F934F935F936F937F938F93AA
:100380009F93AF93BF93EF93FF938091B90090E059
:10039000887F90708036910509F4C2C0813691053E
:1003A000E4F58832910509F47EC089329105C4F4E0
:1003B0008031910509F472C08131910544F40097B0
:1003C00009F40FC18830910509F00EC167C088316A
:1003D000910509F468C08032910509F005C178C023
:1003E0008034910509F48AC0813491054CF480333E
:1003F000910509F46FC08833910509F0F5C06EC00E
:100400008035910509F46EC08835910509F47BC0EB
:100410008834910509F0E8C0E6C08839910509F4EF
:10042000D8C089399105ECF48837910509F478C072
:10043000893791054CF48836910509F471C08037ED
:10044000910509F0D1C06CC08838910509F4C1C08C
:100450008039910509F46AC08038910509F0C4C05B
:1004600065C0803B910509F48CC0813B91054CF43B
:10047000803A910509F46CC0883A910509F0B4C03E
:1004800080C0803C910509F4A7C0883C910509F41F
:10049000A3C0883B910509F0A7C088C080910401E2
:1004A0008093BB0013C090910501809106019817BD
:1004B00008F099C080910501E82FF0E0E95FFE4F58
:1004C00090819093BB008F5F8093050181E082C093
:1004D00080E201C080E38093170185C088E38093A8
:1004E00017014DC0809105019091BB00E82FF0E00D
:1004F000E95FFE4F90838F5F809305019091050126
:100500008091060163C0809105019091BB00E82FA6
:10051000F0E0E95FFE4F90838F5F8093050163C039
:1005200083E08093180110921901D0CF80911901B6
:10053000803108F04EC0809119019091BB00E82FE6
:10054000F0E0E65EFE4F90838F5F80931901BECF8F
:1005500080911901803130F4E0911901F0E0E65EFC
:10056000FE4F1082F1DE60911901E0912A01F091B5
:100570002B018AE191E070E0099510921901EEDEFD
:1005800033C084E08093180110922C0110922D0149
:10059000E0912E01F0912F01099580912D01882382
:1005A00029F481E080932D011092300180912C017B
:1005B000E82FF0E0E05DFE4F90819093BB008F5FED
:1005C00080932C0190912C0180912D01981708F4B3
:1005D0007DCF80E0B1DE08C081E0AEDE1092180170
:1005E00003C010921701B0DEFF91EF91BF91AF9160
:1005F0009F918F917F916F915F914F913F912F913B
:0E0600000F900FBE0F901F901895F894FFCF2B
:02060E000002E8
:00000001FF
