:1000000013C02DC02CC02BC02AC029C028C027C0B7
:1000100026C025C024C023C022C021C020C01FC0CC
:100020001EC01DC01CC035C211241FBECFEFD1E0C1
:10003000DEBFCDBF11E0A0E0B1E0ECE2F8E002C02D
:1000400005900D92A831B107D9F711E0A8E1B1E010
:1000500001C01D92A635B107E1F775D1E5C3D0CF38
:1000600020917C00982F9F70207F922B906490931A
:100070007C0090917A008770987F892B80688093AC
:100080007A0080917A00806480937A0080917A006F
:1000900086FDFCCF2091780030917900932F80E08D
:1000A00030E0282B392BC90108955A9808955A9A9F
:1000B0000895529A5A9A0895DF93CF930F92CDB72D
:1000C000DEB78983F2DF898180D1F1DF0F90CF9194
:1000D000DF9108950F931F93DF93CF930F92CDB7C6
:1000E000DEB7803111F008E001C008E110E005C082
:1000F000802F6983E1DF1F5F69811617C8F30F90B6
:10010000CF91DF911F910F9108950F931F93DF936C
:10011000CF930F92CDB7DEB7803111F004E001C06C
:1001200004E110E005C0802F6983C6DF1F5F69818D
:100130001617C8F30F90CF91DF911F910F9108957B
:1001400080911901089580911801089580931901F3
:100150000895809318010895823030F4E82FF0E07C
:10016000E050FF4F8081089580E008950F931F9322
:10017000FC0110810181812FE9DF112311F012327E
:1001800011F4802FE6DF1F910F9108950F931F93B5
:10019000DF93CF9300D000D0CDB7DEB719821A829B
:1001A0001B821C82CDDF813149F0823239F08823F5
:1001B00089F482E060E0BED282E00BC081E060E0C2
:1001C000B9D2C1DFC9DF4CDF8C01E0D28B83C8011B
:1001D000DBD28C83CE01019664E01FD10F900F908B
:1001E0000F900F90CF91DF911F910F9108954F9233
:1001F0005F926F927F929F92AF92BF92CF92DF9267
:10020000EF92FF920F931F93CF93DF93282F162F18
:1002100090E06BE070E0BBD2FC01EE5FFE4F91849A
:10022000822F90E06BE070E0B2D2FC01EE5FFE4FF7
:100230004080518062807380822F90E06BE070E09C
:10024000A6D2FC01EE5FFE4FC480D580E680F78029
:10025000822F90E06BE070E09AD2FC01EE5FFE4FDF
:100260000285822F90E06BE070E091D2FC01EE5F9E
:10027000FE4F8085F5DE5C01892DF2DEEC01BC01CC
:1002800080E090E028EE33E040E050E092D2AC1AFB
:10029000BD0A950140E050E08CD2A3019201A2D2A8
:1002A000B901CA0129E130E040E050E082D29B016F
:1002B000AC0184E156954795379527958A95D1F7F6
:1002C000C216D306E406F50628F4802F612F02DF5C
:1002D0008FEF0BC02C153D054E055F0528F4802FD0
:1002E000612F13DF81E001C080E0DF91CF911F918A
:1002F0000F91FF90EF90DF90CF90BF90AF909F90C5
:100300007F906F905F904F900895229A2A98219A3B
:1003100029982A9A81E028D283E07BD086EC90E06D
:100320009BD086EB90E093D063D0509A5898539A24
:100330005B98589A5B9A2A984ED0BBDE81E060E0C9
:10034000F9D129980895DF93CF9300D000D00F9270
:10035000CDB7DEB781E089838A831B821C82D5DF1B
:10036000789490E05E010894A11CB11C23E0E22E79
:10037000F12CEC0EFD1E9924939421C0092F10E05E
:100380006501C00ED11EF6018080892F682D9D83E6
:100390002EDFF701E00FF11F20819D81821731F4DC
:1003A000882321F08394F601808204C0F501E00FD8
:1003B000F11F9082F701E00FF11F80839F5F923061
:1003C000E8F283E0D1D190E0D9CF8EBD0DB407FE25
:1003D000FDCF8EB5089584B18C6284B985B1837DDB
:1003E00085B98CB580618CBD8CB580648CBD089559
:1003F00010922E01E9EBF0E080818E7F8083808176
:100400008D7F80838DEF8093B80085E48093BC005E
:100410000895880F8093BA0008956131A0F4209167
:100420002E01243091F460934301DC01E6E4F1E015
:1004300070E06E0F7F1F02C08D918193E617F70762
:10044000D9F780E0089581E0089582E008959093BF
:1004500041018093400108959093450180934401A8
:100460000895882311F085EC01C085E88093BC00D5
:10047000089585ED8093BC008091BC0084FDFCCF85
:1004800010922E01089585EC8093BC0010922E01ED
:1004900008951F920F920FB60F9211242F933F933E
:1004A0004F935F936F937F938F939F93AF93BF937C
:1004B000EF93FF938091B90090E0887F9070803631
:1004C000910509F4C2C081369105E4F588329105A1
:1004D00009F47EC089329105C4F48031910509F494
:1004E00072C08131910544F4009709F40FC188303E
:1004F000910509F00EC167C08831910509F468C003
:100500008032910509F005C178C08034910509F465
:100510008AC0813491054CF48033910509F46FC091
:100520008833910509F0F5C06EC08035910509F456
:100530006EC08835910509F47BC08834910509F0B7
:10054000E8C0E6C08839910509F4D8C08939910519
:10055000ECF48837910509F478C0893791054CF49B
:100560008836910509F471C08037910509F0D1C032
:100570006CC08838910509F4C1C08039910509F42F
:100580006AC08038910509F0C4C065C0803B910500
:1005900009F48CC0813B91054CF4803A910509F433
:1005A0006CC0883A910509F0B4C080C0803C9105C8
:1005B00009F4A7C0883C910509F4A3C0883B9105C4
:1005C00009F0A7C088C080911A018093BB0013C0B6
:1005D00090911B0180911C01981708F099C080919F
:1005E0001B01E82FF0E0E35EFE4F90819093BB008B
:1005F0008F5F80931B0181E082C080E201C080E3B5
:1006000080932D0185C088E380932D014DC080919A
:100610001B019091BB00E82FF0E0E35EFE4F90835A
:100620008F5F80931B0190911B0180911C0163C01F
:1006300080911B019091BB00E82FF0E0E35EFE4F3C
:1006400090838F5F80931B0163C083E080932E01B2
:1006500010922F01D0CF80912F01803108F04EC031
:1006600080912F019091BB00E82FF0E0E05DFE4FFC
:1006700090838F5F80932F01BECF80912F018031B7
:1006800030F4E0912F01F0E0E05DFE4F1082F1DEEA
:1006900060912F01E0914001F091410180E391E0F0
:1006A00070E0099510922F01EEDE33C084E0809354
:1006B0002E011092420110924301E0914401F09109
:1006C0004501099580914301882329F481E08093B5
:1006D00043011092460180914201E82FF0E0EA5B6D
:1006E000FE4F90819093BB008F5F80934201909169
:1006F000420180914301981708F47DCF80E0B1DE7C
:1007000008C081E0AEDE10922E0103C010922D01D0
:10071000B0DEFF91EF91BF91AF919F918F917F914B
:100720006F915F914F913F912F910F900FBE0F905E
:100730001F90189590E044ED50E320E533EC11C094
:10074000662311F4299A01C02A9AFA013197F1F728
:10075000662311F4299801C02A98F9013197F1F71D
:100760009F5F981768F3089590E049E150E009C051
:1007700020E137E2FA013197F1F721503040D1F70B
:100780009F5F9817A8F30895892F08950895552716
:10079000002480FF02C0060E571F660F771F6115E9
:1007A000710521F096958795009799F7952F802DE3
:1007B0000895FF27EE27BB27AA2760FF04C0A20FDA
:1007C000B31FE41FF51F220F331F441F551F9695BB
:1007D00087957795679589F70097760771F7CF0129
:1007E000BD010895A1E21A2EAA1BBB1BFD010DC07D
:1007F000AA1FBB1FEE1FFF1FA217B307E407F507D1
:1008000020F0A21BB30BE40BF50B661F771F881FAC
:10081000991F1A9469F760957095809590959B0142
:0C082000AC01BD01CF010895F894FFCF9A
:10082C000002440000002B000000070100440000FF
:08083C00004C0000000603104F
:00000001FF
